{
  "contractName": "Fundraiser",
  "abi": [
    {
      "inputs": [],
      "stateMutability": "nonpayable",
      "type": "constructor"
    },
    {
      "inputs": [],
      "name": "owner",
      "outputs": [
        {
          "internalType": "address",
          "name": "",
          "type": "address"
        }
      ],
      "stateMutability": "view",
      "type": "function"
    },
    {
      "inputs": [
        {
          "internalType": "address",
          "name": "sender",
          "type": "address"
        },
        {
          "internalType": "string",
          "name": "_name",
          "type": "string"
        },
        {
          "internalType": "uint256",
          "name": "_goal",
          "type": "uint256"
        },
        {
          "internalType": "uint256",
          "name": "_maxDonation",
          "type": "uint256"
        },
        {
          "internalType": "string",
          "name": "_fundType",
          "type": "string"
        },
        {
          "internalType": "string",
          "name": "_thumbnail",
          "type": "string"
        }
      ],
      "name": "makeCampaign",
      "outputs": [],
      "stateMutability": "nonpayable",
      "type": "function"
    },
    {
      "inputs": [
        {
          "internalType": "uint256",
          "name": "index",
          "type": "uint256"
        }
      ],
      "name": "donate",
      "outputs": [],
      "stateMutability": "payable",
      "type": "function"
    },
    {
      "inputs": [
        {
          "internalType": "uint256",
          "name": "index",
          "type": "uint256"
        }
      ],
      "name": "isGoalReached",
      "outputs": [
        {
          "internalType": "bool",
          "name": "",
          "type": "bool"
        }
      ],
      "stateMutability": "view",
      "type": "function"
    },
    {
      "inputs": [
        {
          "internalType": "uint256",
          "name": "index",
          "type": "uint256"
        }
      ],
      "name": "endFundraiser",
      "outputs": [],
      "stateMutability": "payable",
      "type": "function"
    },
    {
      "inputs": [],
      "name": "getList",
      "outputs": [
        {
          "components": [
            {
              "internalType": "address",
              "name": "creator",
              "type": "address"
            },
            {
              "internalType": "string",
              "name": "name",
              "type": "string"
            },
            {
              "internalType": "uint256",
              "name": "goal",
              "type": "uint256"
            },
            {
              "internalType": "uint256",
              "name": "maxDonation",
              "type": "uint256"
            },
            {
              "internalType": "string",
              "name": "fundType",
              "type": "string"
            },
            {
              "internalType": "uint256",
              "name": "etherAmount",
              "type": "uint256"
            },
            {
              "internalType": "string",
              "name": "thumbnail",
              "type": "string"
            }
          ],
          "internalType": "struct Fundraiser.Campaign[]",
          "name": "",
          "type": "tuple[]"
        }
      ],
      "stateMutability": "view",
      "type": "function"
    },
    {
      "inputs": [
        {
          "internalType": "uint256",
          "name": "index",
          "type": "uint256"
        }
      ],
      "name": "getEther",
      "outputs": [
        {
          "internalType": "uint256",
          "name": "",
          "type": "uint256"
        }
      ],
      "stateMutability": "view",
      "type": "function"
    },
    {
      "inputs": [
        {
          "internalType": "uint256",
          "name": "index",
          "type": "uint256"
        }
      ],
      "name": "getCampaign",
      "outputs": [
        {
          "components": [
            {
              "internalType": "address",
              "name": "creator",
              "type": "address"
            },
            {
              "internalType": "string",
              "name": "name",
              "type": "string"
            },
            {
              "internalType": "uint256",
              "name": "goal",
              "type": "uint256"
            },
            {
              "internalType": "uint256",
              "name": "maxDonation",
              "type": "uint256"
            },
            {
              "internalType": "string",
              "name": "fundType",
              "type": "string"
            },
            {
              "internalType": "uint256",
              "name": "etherAmount",
              "type": "uint256"
            },
            {
              "internalType": "string",
              "name": "thumbnail",
              "type": "string"
            }
          ],
          "internalType": "struct Fundraiser.Campaign",
          "name": "",
          "type": "tuple"
        }
      ],
      "stateMutability": "view",
      "type": "function"
    }
  ],
  "bytecode": "0x608060405234801561001057600080fd5b5033600160006101000a81548173ffffffffffffffffffffffffffffffffffffffff021916908373ffffffffffffffffffffffffffffffffffffffff1602179055506124f1806100616000396000f3fe60806040526004361061007b5760003560e01c8063f04961ba1161004e578063f04961ba1461013c578063f14faf6f14610179578063f19603aa14610195578063ff649b7f146101d25761007b565b80635598f8cc146100805780638da5cb5b146100bd578063942b765a146100e8578063bd435bca14610113575b600080fd5b34801561008c57600080fd5b506100a760048036038101906100a29190611c4e565b6101ee565b6040516100b49190611e0e565b60405180910390f35b3480156100c957600080fd5b506100d2610454565b6040516100df9190611e3f565b60405180910390f35b3480156100f457600080fd5b506100fd61047a565b60405161010a9190611fc6565b60405180910390f35b34801561011f57600080fd5b5061013a60048036038101906101359190612149565b610703565b005b34801561014857600080fd5b50610163600480360381019061015e9190611c4e565b610884565b6040516101709190612239565b60405180910390f35b610193600480360381019061018e9190611c4e565b610b00565b005b3480156101a157600080fd5b506101bc60048036038101906101b79190611c4e565b611066565b6040516101c9919061226f565b60405180910390f35b6101ec60048036038101906101e79190611c4e565b61158f565b005b6101f6611b0e565b6000828154811061020a5761020961228a565b5b90600052602060002090600702016040518060e00160405290816000820160009054906101000a900473ffffffffffffffffffffffffffffffffffffffff1673ffffffffffffffffffffffffffffffffffffffff1673ffffffffffffffffffffffffffffffffffffffff168152602001600182018054610289906122e8565b80601f01602080910402602001604051908101604052809291908181526020018280546102b5906122e8565b80156103025780601f106102d757610100808354040283529160200191610302565b820191906000526020600020905b8154815290600101906020018083116102e557829003601f168201915b50505050508152602001600282015481526020016003820154815260200160048201805461032f906122e8565b80601f016020809104026020016040519081016040528092919081815260200182805461035b906122e8565b80156103a85780601f1061037d576101008083540402835291602001916103a8565b820191906000526020600020905b81548152906001019060200180831161038b57829003601f168201915b50505050508152602001600582015481526020016006820180546103cb906122e8565b80601f01602080910402602001604051908101604052809291908181526020018280546103f7906122e8565b80156104445780601f1061041957610100808354040283529160200191610444565b820191906000526020600020905b81548152906001019060200180831161042757829003601f168201915b5050505050815250509050919050565b600160009054906101000a900473ffffffffffffffffffffffffffffffffffffffff1681565b60606000805480602002602001604051908101604052809291908181526020016000905b828210156106fa57838290600052602060002090600702016040518060e00160405290816000820160009054906101000a900473ffffffffffffffffffffffffffffffffffffffff1673ffffffffffffffffffffffffffffffffffffffff1673ffffffffffffffffffffffffffffffffffffffff168152602001600182018054610527906122e8565b80601f0160208091040260200160405190810160405280929190818152602001828054610553906122e8565b80156105a05780601f10610575576101008083540402835291602001916105a0565b820191906000526020600020905b81548152906001019060200180831161058357829003601f168201915b5050505050815260200160028201548152602001600382015481526020016004820180546105cd906122e8565b80601f01602080910402602001604051908101604052809291908181526020018280546105f9906122e8565b80156106465780601f1061061b57610100808354040283529160200191610646565b820191906000526020600020905b81548152906001019060200180831161062957829003601f168201915b5050505050815260200160058201548152602001600682018054610669906122e8565b80601f0160208091040260200160405190810160405280929190818152602001828054610695906122e8565b80156106e25780601f106106b7576101008083540402835291602001916106e2565b820191906000526020600020905b8154815290600101906020018083116106c557829003601f168201915b5050505050815250508152602001906001019061049e565b50505050905090565b60006040518060e001604052808873ffffffffffffffffffffffffffffffffffffffff168152602001878152602001670de0b6b3a76400006103e8886107499190612377565b61075391906123a8565b8152602001670de0b6b3a76400006103e88761076f9190612377565b61077991906123a8565b815260200184815260200160008152602001838152509050600081908060018154018082558091505060019003906000526020600020906007020160009091909190915060008201518160000160006101000a81548173ffffffffffffffffffffffffffffffffffffffff021916908373ffffffffffffffffffffffffffffffffffffffff1602179055506020820151816001019080519060200190610820929190611b61565b5060408201518160020155606082015181600301556080820151816004019080519060200190610851929190611b61565b5060a0820151816005015560c0820151816006019080519060200190610878929190611b61565b50505050505050505050565b6000806000838154811061089b5761089a61228a565b5b90600052602060002090600702016040518060e00160405290816000820160009054906101000a900473ffffffffffffffffffffffffffffffffffffffff1673ffffffffffffffffffffffffffffffffffffffff1673ffffffffffffffffffffffffffffffffffffffff16815260200160018201805461091a906122e8565b80601f0160208091040260200160405190810160405280929190818152602001828054610946906122e8565b80156109935780601f1061096857610100808354040283529160200191610993565b820191906000526020600020905b81548152906001019060200180831161097657829003601f168201915b5050505050815260200160028201548152602001600382015481526020016004820180546109c0906122e8565b80601f01602080910402602001604051908101604052809291908181526020018280546109ec906122e8565b8015610a395780601f10610a0e57610100808354040283529160200191610a39565b820191906000526020600020905b815481529060010190602001808311610a1c57829003601f168201915b5050505050815260200160058201548152602001600682018054610a5c906122e8565b80601f0160208091040260200160405190810160405280929190818152602001828054610a88906122e8565b8015610ad55780601f10610aaa57610100808354040283529160200191610ad5565b820191906000526020600020905b815481529060010190602001808311610ab857829003601f168201915b5050505050815250509050670de0b6b3a76400008160a00151610af89190612377565b915050919050565b806000808281548110610b1657610b1561228a565b5b90600052602060002090600702016040518060e00160405290816000820160009054906101000a900473ffffffffffffffffffffffffffffffffffffffff1673ffffffffffffffffffffffffffffffffffffffff1673ffffffffffffffffffffffffffffffffffffffff168152602001600182018054610b95906122e8565b80601f0160208091040260200160405190810160405280929190818152602001828054610bc1906122e8565b8015610c0e5780601f10610be357610100808354040283529160200191610c0e565b820191906000526020600020905b815481529060010190602001808311610bf157829003601f168201915b505050505081526020016002820154815260200160038201548152602001600482018054610c3b906122e8565b80601f0160208091040260200160405190810160405280929190818152602001828054610c67906122e8565b8015610cb45780601f10610c8957610100808354040283529160200191610cb4565b820191906000526020600020905b815481529060010190602001808311610c9757829003601f168201915b5050505050815260200160058201548152602001600682018054610cd7906122e8565b80601f0160208091040260200160405190810160405280929190818152602001828054610d03906122e8565b8015610d505780601f10610d2557610100808354040283529160200191610d50565b820191906000526020600020905b815481529060010190602001808311610d3357829003601f168201915b50505050508152505090508060600151341115610d6c57600080fd5b826000808281548110610d8257610d8161228a565b5b90600052602060002090600702016040518060e00160405290816000820160009054906101000a900473ffffffffffffffffffffffffffffffffffffffff1673ffffffffffffffffffffffffffffffffffffffff1673ffffffffffffffffffffffffffffffffffffffff168152602001600182018054610e01906122e8565b80601f0160208091040260200160405190810160405280929190818152602001828054610e2d906122e8565b8015610e7a5780601f10610e4f57610100808354040283529160200191610e7a565b820191906000526020600020905b815481529060010190602001808311610e5d57829003601f168201915b505050505081526020016002820154815260200160038201548152602001600482018054610ea7906122e8565b80601f0160208091040260200160405190810160405280929190818152602001828054610ed3906122e8565b8015610f205780601f10610ef557610100808354040283529160200191610f20565b820191906000526020600020905b815481529060010190602001808311610f0357829003601f168201915b5050505050815260200160058201548152602001600682018054610f43906122e8565b80601f0160208091040260200160405190810160405280929190818152602001828054610f6f906122e8565b8015610fbc5780601f10610f9157610100808354040283529160200191610fbc565b820191906000526020600020905b815481529060010190602001808311610f9f57829003601f168201915b505050505081525050905033604051602001610fd8919061244a565b604051602081830303815290604052805190602001208160000151604051602001611003919061244a565b604051602081830303815290604052805190602001200361102357600080fd5b34600086815481106110385761103761228a565b5b906000526020600020906007020160050160008282546110589190612465565b925050819055505050505050565b600081600080828154811061107e5761107d61228a565b5b90600052602060002090600702016040518060e00160405290816000820160009054906101000a900473ffffffffffffffffffffffffffffffffffffffff1673ffffffffffffffffffffffffffffffffffffffff1673ffffffffffffffffffffffffffffffffffffffff1681526020016001820180546110fd906122e8565b80601f0160208091040260200160405190810160405280929190818152602001828054611129906122e8565b80156111765780601f1061114b57610100808354040283529160200191611176565b820191906000526020600020905b81548152906001019060200180831161115957829003601f168201915b5050505050815260200160028201548152602001600382015481526020016004820180546111a3906122e8565b80601f01602080910402602001604051908101604052809291908181526020018280546111cf906122e8565b801561121c5780601f106111f15761010080835404028352916020019161121c565b820191906000526020600020905b8154815290600101906020018083116111ff57829003601f168201915b505050505081526020016005820154815260200160068201805461123f906122e8565b80601f016020809104026020016040519081016040528092919081815260200182805461126b906122e8565b80156112b85780601f1061128d576101008083540402835291602001916112b8565b820191906000526020600020905b81548152906001019060200180831161129b57829003601f168201915b5050505050815250509050336040516020016112d4919061244a565b6040516020818303038152906040528051906020012081600001516040516020016112ff919061244a565b604051602081830303815290604052805190602001201461131f57600080fd5b60008085815481106113345761133361228a565b5b90600052602060002090600702016040518060e00160405290816000820160009054906101000a900473ffffffffffffffffffffffffffffffffffffffff1673ffffffffffffffffffffffffffffffffffffffff1673ffffffffffffffffffffffffffffffffffffffff1681526020016001820180546113b3906122e8565b80601f01602080910402602001604051908101604052809291908181526020018280546113df906122e8565b801561142c5780601f106114015761010080835404028352916020019161142c565b820191906000526020600020905b81548152906001019060200180831161140f57829003601f168201915b505050505081526020016002820154815260200160038201548152602001600482018054611459906122e8565b80601f0160208091040260200160405190810160405280929190818152602001828054611485906122e8565b80156114d25780601f106114a7576101008083540402835291602001916114d2565b820191906000526020600020905b8154815290600101906020018083116114b557829003601f168201915b50505050508152602001600582015481526020016006820180546114f5906122e8565b80601f0160208091040260200160405190810160405280929190818152602001828054611521906122e8565b801561156e5780601f106115435761010080835404028352916020019161156e565b820191906000526020600020905b81548152906001019060200180831161155157829003601f168201915b505050505081525050905080604001518160a0015110159350505050919050565b8060008082815481106115a5576115a461228a565b5b90600052602060002090600702016040518060e00160405290816000820160009054906101000a900473ffffffffffffffffffffffffffffffffffffffff1673ffffffffffffffffffffffffffffffffffffffff1673ffffffffffffffffffffffffffffffffffffffff168152602001600182018054611624906122e8565b80601f0160208091040260200160405190810160405280929190818152602001828054611650906122e8565b801561169d5780601f106116725761010080835404028352916020019161169d565b820191906000526020600020905b81548152906001019060200180831161168057829003601f168201915b5050505050815260200160028201548152602001600382015481526020016004820180546116ca906122e8565b80601f01602080910402602001604051908101604052809291908181526020018280546116f6906122e8565b80156117435780601f1061171857610100808354040283529160200191611743565b820191906000526020600020905b81548152906001019060200180831161172657829003601f168201915b5050505050815260200160058201548152602001600682018054611766906122e8565b80601f0160208091040260200160405190810160405280929190818152602001828054611792906122e8565b80156117df5780601f106117b4576101008083540402835291602001916117df565b820191906000526020600020905b8154815290600101906020018083116117c257829003601f168201915b5050505050815250509050336040516020016117fb919061244a565b604051602081830303815290604052805190602001208160000151604051602001611826919061244a565b604051602081830303815290604052805190602001201461184657600080fd5b6001151561185384611066565b15151461185f57600080fd5b60008084815481106118745761187361228a565b5b90600052602060002090600702016040518060e00160405290816000820160009054906101000a900473ffffffffffffffffffffffffffffffffffffffff1673ffffffffffffffffffffffffffffffffffffffff1673ffffffffffffffffffffffffffffffffffffffff1681526020016001820180546118f3906122e8565b80601f016020809104026020016040519081016040528092919081815260200182805461191f906122e8565b801561196c5780601f106119415761010080835404028352916020019161196c565b820191906000526020600020905b81548152906001019060200180831161194f57829003601f168201915b505050505081526020016002820154815260200160038201548152602001600482018054611999906122e8565b80601f01602080910402602001604051908101604052809291908181526020018280546119c5906122e8565b8015611a125780601f106119e757610100808354040283529160200191611a12565b820191906000526020600020905b8154815290600101906020018083116119f557829003601f168201915b5050505050815260200160058201548152602001600682018054611a35906122e8565b80601f0160208091040260200160405190810160405280929190818152602001828054611a61906122e8565b8015611aae5780601f10611a8357610100808354040283529160200191611aae565b820191906000526020600020905b815481529060010190602001808311611a9157829003601f168201915b5050505050815250509050806000015173ffffffffffffffffffffffffffffffffffffffff166108fc8260a001519081150290604051600060405180830381858888f19350505050158015611b07573d6000803e3d6000fd5b5050505050565b6040518060e00160405280600073ffffffffffffffffffffffffffffffffffffffff1681526020016060815260200160008152602001600081526020016060815260200160008152602001606081525090565b828054611b6d906122e8565b90600052602060002090601f016020900481019282611b8f5760008555611bd6565b82601f10611ba857805160ff1916838001178555611bd6565b82800160010185558215611bd6579182015b82811115611bd5578251825591602001919060010190611bba565b5b509050611be39190611be7565b5090565b5b80821115611c00576000816000905550600101611be8565b5090565b6000604051905090565b600080fd5b600080fd5b6000819050919050565b611c2b81611c18565b8114611c3657600080fd5b50565b600081359050611c4881611c22565b92915050565b600060208284031215611c6457611c63611c0e565b5b6000611c7284828501611c39565b91505092915050565b600073ffffffffffffffffffffffffffffffffffffffff82169050919050565b6000611ca682611c7b565b9050919050565b611cb681611c9b565b82525050565b600081519050919050565b600082825260208201905092915050565b60005b83811015611cf6578082015181840152602081019050611cdb565b83811115611d05576000848401525b50505050565b6000601f19601f8301169050919050565b6000611d2782611cbc565b611d318185611cc7565b9350611d41818560208601611cd8565b611d4a81611d0b565b840191505092915050565b611d5e81611c18565b82525050565b600060e083016000830151611d7c6000860182611cad565b5060208301518482036020860152611d948282611d1c565b9150506040830151611da96040860182611d55565b506060830151611dbc6060860182611d55565b5060808301518482036080860152611dd48282611d1c565b91505060a0830151611de960a0860182611d55565b5060c083015184820360c0860152611e018282611d1c565b9150508091505092915050565b60006020820190508181036000830152611e288184611d64565b905092915050565b611e3981611c9b565b82525050565b6000602082019050611e546000830184611e30565b92915050565b600081519050919050565b600082825260208201905092915050565b6000819050602082019050919050565b600060e083016000830151611e9e6000860182611cad565b5060208301518482036020860152611eb68282611d1c565b9150506040830151611ecb6040860182611d55565b506060830151611ede6060860182611d55565b5060808301518482036080860152611ef68282611d1c565b91505060a0830151611f0b60a0860182611d55565b5060c083015184820360c0860152611f238282611d1c565b9150508091505092915050565b6000611f3c8383611e86565b905092915050565b6000602082019050919050565b6000611f5c82611e5a565b611f668185611e65565b935083602082028501611f7885611e76565b8060005b85811015611fb45784840389528151611f958582611f30565b9450611fa083611f44565b925060208a01995050600181019050611f7c565b50829750879550505050505092915050565b60006020820190508181036000830152611fe08184611f51565b905092915050565b611ff181611c9b565b8114611ffc57600080fd5b50565b60008135905061200e81611fe8565b92915050565b600080fd5b600080fd5b7f4e487b7100000000000000000000000000000000000000000000000000000000600052604160045260246000fd5b61205682611d0b565b810181811067ffffffffffffffff821117156120755761207461201e565b5b80604052505050565b6000612088611c04565b9050612094828261204d565b919050565b600067ffffffffffffffff8211156120b4576120b361201e565b5b6120bd82611d0b565b9050602081019050919050565b82818337600083830152505050565b60006120ec6120e784612099565b61207e565b90508281526020810184848401111561210857612107612019565b5b6121138482856120ca565b509392505050565b600082601f8301126121305761212f612014565b5b81356121408482602086016120d9565b91505092915050565b60008060008060008060c0878903121561216657612165611c0e565b5b600061217489828a01611fff565b965050602087013567ffffffffffffffff81111561219557612194611c13565b5b6121a189828a0161211b565b95505060406121b289828a01611c39565b94505060606121c389828a01611c39565b935050608087013567ffffffffffffffff8111156121e4576121e3611c13565b5b6121f089828a0161211b565b92505060a087013567ffffffffffffffff81111561221157612210611c13565b5b61221d89828a0161211b565b9150509295509295509295565b61223381611c18565b82525050565b600060208201905061224e600083018461222a565b92915050565b60008115159050919050565b61226981612254565b82525050565b60006020820190506122846000830184612260565b92915050565b7f4e487b7100000000000000000000000000000000000000000000000000000000600052603260045260246000fd5b7f4e487b7100000000000000000000000000000000000000000000000000000000600052602260045260246000fd5b6000600282049050600182168061230057607f821691505b602082108103612313576123126122b9565b5b50919050565b7f4e487b7100000000000000000000000000000000000000000000000000000000600052601260045260246000fd5b7f4e487b7100000000000000000000000000000000000000000000000000000000600052601160045260246000fd5b600061238282611c18565b915061238d83611c18565b92508261239d5761239c612319565b5b828204905092915050565b60006123b382611c18565b91506123be83611c18565b9250817fffffffffffffffffffffffffffffffffffffffffffffffffffffffffffffffff04831182151516156123f7576123f6612348565b5b828202905092915050565b60008160601b9050919050565b600061241a82612402565b9050919050565b600061242c8261240f565b9050919050565b61244461243f82611c9b565b612421565b82525050565b60006124568284612433565b60148201915081905092915050565b600061247082611c18565b915061247b83611c18565b9250827fffffffffffffffffffffffffffffffffffffffffffffffffffffffffffffffff038211156124b0576124af612348565b5b82820190509291505056fea2646970667358221220f463740f9a102c659567b35da97451aebdf9f43adbb25815321fb5f04627c72964736f6c634300080d0033",
  "immutableReferences": {},
  "source": "pragma solidity >= 0.8.0;\r\n\r\ncontract Fundraiser {\r\n    struct Campaign {\r\n        address creator;\r\n        string name;\r\n        uint256 goal;\r\n        uint256 maxDonation;\r\n        string fundType;\r\n        uint etherAmount;\r\n        string thumbnail;\r\n    }\r\n    Campaign[] campaignArr;\r\n\r\n    // uint public etherCollected = 0 ether;\r\n    address public owner;\r\n    constructor() {\r\n        owner = msg.sender;\r\n    }\r\n\r\n    modifier onlyOwner(uint index) {\r\n        Campaign memory pulledCampaign = campaignArr[index];\r\n        require(keccak256(abi.encodePacked(pulledCampaign.creator)) == keccak256(abi.encodePacked(msg.sender)));\r\n        _;\r\n    }\r\n\r\n    modifier notOwner(uint index) {\r\n        Campaign memory pulledCampaign = campaignArr[index];\r\n        require(keccak256(abi.encodePacked(pulledCampaign.creator)) != keccak256(abi.encodePacked(msg.sender)));\r\n        _;\r\n    }\r\n\r\n    modifier donationWithinBounds(uint index) {\r\n        Campaign memory currCampaign = campaignArr[index];\r\n        require(msg.value <= currCampaign.maxDonation);    \r\n        _;\r\n    }\r\n\r\n    function makeCampaign(address sender, string memory _name, uint256 _goal, uint256 _maxDonation, string memory _fundType, string memory _thumbnail) public {\r\n        Campaign memory newCampaign = Campaign(sender, _name, _goal / 1000 * 1 ether, _maxDonation  / 1000 * 1 ether, _fundType, 0, _thumbnail);\r\n        campaignArr.push(newCampaign);\r\n    }\r\n\r\n    function donate(uint index) public payable donationWithinBounds(index) notOwner(index) {\r\n        campaignArr[index].etherAmount += msg.value;\r\n    }\r\n\r\n    function isGoalReached(uint index) onlyOwner(index) public view returns (bool)  {\r\n        Campaign memory pulledCampaign = campaignArr[index];\r\n        return pulledCampaign.etherAmount >= pulledCampaign.goal;\r\n    }\r\n\r\n    function endFundraiser(uint index) public payable onlyOwner(index) {\r\n        require(isGoalReached(index) == true);\r\n        Campaign memory pulledCampaign = campaignArr[index];\r\n        payable(pulledCampaign.creator).transfer(pulledCampaign.etherAmount);\r\n    }\r\n\r\n    function getList() public view returns (Campaign[] memory) {\r\n        return campaignArr;\r\n    }\r\n\r\n    function getEther(uint index) public view returns (uint) {\r\n        Campaign memory pulledCampaign = campaignArr[index];\r\n        return pulledCampaign.etherAmount / 1E18;\r\n    }\r\n\r\n    function getCampaign(uint index) public view returns (Campaign memory) {\r\n        return campaignArr[index];\r\n    }\r\n\r\n    // function getName(index) public view returns (string memory) {\r\n    //     return myCampaign.name;\r\n    // }\r\n\r\n    // function getGoal() public view returns (uint) {\r\n    //     return myCampaign.goal;\r\n    // }\r\n\r\n    // function getMaxDonation() public view returns (uint) {\r\n    //     return myCampaign.maxDonation;\r\n    // }\r\n\r\n    // function getType() public view returns (string memory) {\r\n    //     return myCampaign.fundType;\r\n    // }\r\n\r\n\r\n}\r\n\r\n\r\n\r\n",
  "sourcePath": "C:\\Users\\Gen\\Documents\\Train\\Funding_Dapp_Project\\contracts\\Fundraiser.sol",
  "compiler": {
    "name": "solc",
    "version": "0.8.13+commit.abaa5c0e.Emscripten.clang"
  },
  "schemaVersion": "3.4.7",
  "updatedAt": "2022-09-03T12:33:00.544Z",
  "devdoc": {
    "kind": "dev",
    "methods": {},
    "version": 1
  },
  "userdoc": {
    "kind": "user",
    "methods": {},
    "version": 1
  }
}